:0400000043EF00F0DA
:100008005F82FACF3FF0FBCF40F0E9CF41F0EACF73
:1000180042F0E1CF43F0E2CF44F0D9CF45F0DACF58
:1000280046F0F3CF47F0F4CF48F0F6CF49F0F7CFDA
:100038004AF0F8CF4BF0F5CF4CF091EC06F0DCEC41
:1000480005F04CC0F5FF4BC0F8FF4AC0F7FF49C0A8
:10005800F6FF48C0F4FF47C0F3FF46C0DAFF45C0CB
:10006800D9FF44C0E2FF43C0E1FF42C0EAFF41C0FC
:10007800E9FF40C0FBFF3FC0FAFF5F9211008DEF20
:1000880005F0576E0C0E5718D8A495D053B005D06C
:1000980054A002D08B8001D08B9053C055F0D890DB
:1000A800553255B00AD054C055F0D8905532553015
:1000B800D8A002D08B8201D08B9253C055F0D89033
:1000C8005532D890553255B00CD054C055F0D89010
:1000D8005532D89055325530D8A002D08B8401D0F3
:1000E8008B9453C055F0D8905532D8905532D8904B
:1000F800553255B00ED054C055F0D8905532D890DE
:100108005532D89055325530D8A002D08B8601D0C0
:100118008B9653C055F0553A0F0E551655B00BD067
:1001280054C055F0553A0F0E55165530D8A002D088
:100138008B8801D08B9853C055F0050E566ED89019
:100148005532562EFCD755B00ED054C055F0050E7A
:10015800566ED8905532562EFCD75530D8A002D0BE
:100168008B8A01D08B9A53C055F0060E566ED890E4
:100178005532562EFCD755B00ED054C055F0060E49
:10018800566ED8905532562EFCD75530D8A002D08E
:100198008B8C01D08B9C556A53AE01D0552A55B033
:1001A8000AD0556A54AE01D0552A5530D8A002D08D
:1001B8008B8E01D08B9E0D0E5718D8A4CDD053B07E
:1001C80006D054A002D08C8008D08C9006D0B20EF5
:1001D8004E6EFE0E4F6ECAEC06F053C055F0D89026
:1001E800553255B00BD054C055F0D89055325530D3
:1001F800D8A002D08C8208D08C9206D0D40E4E6E35
:10020800FE0E4F6ECAEC06F053C055F0D89055322A
:10021800D890553255B00DD054C055F0D8905532BD
:10022800D89055325530D8A002D08C8408D08C9400
:1002380006D0F60E4E6EFE0E4F6ECAEC06F053C098
:1002480055F0D8905532D8905532D890553255B08F
:100258000FD054C055F0D8905532D8905532D89018
:1002680055325530D8A002D08C8608D08C9606D04E
:10027800180E4E6EFF0E4F6ECAEC06F053C055F0C6
:10028800553A0F0E551655B00CD054C055F0553A86
:100298000F0E55165530D8A002D08C8808D08C98EF
:1002A80006D03A0E4E6EFF0E4F6ECAEC06F053C0E3
:1002B80055F0050E566ED8905532562EFCD755B0CF
:1002C8000FD054C055F0050E566ED8905532562EA4
:1002D800FCD75530D8A002D08C8A08D08C9A06D08A
:1002E8005C0E4E6EFF0E4F6ECAEC06F053C055F012
:1002F800060E566ED8905532562EFCD755B00FD0F4
:1003080054C055F0060E566ED8905532562EFCD76E
:100318005530D8A002D08C8C08D08C9C06D07E0E8C
:100328004E6EFF0E4F6ECAEC06F0556A53AE01D002
:10033800552A55B00BD0556A54AE01D0552A5530C0
:10034800D8A002D08C8E08D08C9E06D0A00E4E6EFF
:10035800FF0E4F6ECAEC06F00F0E5718D8A4120005
:1003680053B006D054A002D08E8008D08E9006D00C
:10037800C30E4E6EFE0E4F6ECAEC06F053C055F01B
:10038800D890553255B00BD054C055F0D89055324E
:100398005530D8A002D08E8208D08E9206D0E50EB5
:1003A8004E6EFE0E4F6ECAEC06F053C055F0D89054
:1003B8005532D890553255B00DD054C055F0D8901C
:1003C8005532D89055325530D8A002D08E8408D0F6
:1003D8008E9406D0070E4E6EFF0E4F6ECAEC06F0D6
:1003E80053C055F0D8905532D8905532D8905532E0
:1003F80055B00FD054C055F0D8905532D8905532DA
:10040800D89055325530D8A002D08E8608D08E9616
:1004180006D0290E4E6EFF0E4F6ECAEC06F053C082
:1004280055F0553A0F0E551655B00CD054C055F02E
:10043800553A0F0E55165530D8A002D08E8808D0E0
:100448008E9806D04B0E4E6EFF0E4F6ECAEC06F01D
:1004580053C055F0050E566ED8905532562EFCD71F
:1004680055B00FD054C055F0050E566ED890553281
:10047800562EFCD75530D8A002D08E8A08D08E9A36
:1004880006D06D0E4E6EFF0E4F6ECAEC06F053C0CE
:1004980055F0060E566ED8905532562EFCD755B0EC
:1004A8000FD054C055F0060E566ED8905532562EC1
:1004B800FCD75530D8A002D08E8C08D08E9C06D0A0
:1004C8008F0E4E6EFF0E4F6ECAEC06F0556A53AE95
:1004D80001D0552A55B00BD0556A54AE01D0552AD3
:1004E8005530D8A002D08E8E12008E9E1200B10E0A
:1004F8004E6EFF0E4F6ECAEC06F012005E9081C081
:100508000DF0FFD0000E0001936F000E926F0001F6
:1005180093BF08D0000193511BE1080E0001925DC2
:10052800D8B016D0800E00019225D96E000E0001B9
:100538009321DA6E780E00019225E16E000E00011B
:100548009321E26EDFCFE7FF0001924B932BDFD7B9
:100558006DEC06F01200000E0001956F000E946F0E
:10056800000195BF08D0000195511BE1080E00015C
:10057800945DD8B016D0800E00019425D96E000E77
:1005880000019521DA6E700E00019425E16E000ECF
:1005980000019521E26EDFCFE7FF0001944B952B18
:1005A800DFD749EC06F01200000E0001976F000E2D
:1005B800966F000197BF08D0000197511BE1080E04
:1005C8000001965DD8B016D0800E00019625D96E30
:1005D800000E00019721DA6E680E00019625E16E83
:1005E800000E00019721E26EDFCFE7FF0001964B76
:1005F800972BDFD725EC06F01200000E0001996F4B
:10060800000E986F000199BF08D0000199511BE1B5
:10061800080E0001985DD8B016D0800E000198250C
:10062800D96E000E00019921DA6E600E000198253E
:10063800E16E000E00019921E26EDFCFE7FF0001B5
:10064800984B992BDFD701EC06F01200000E000141
:100658009B6F000E9A6F00019BBF08D000019B5151
:100668001BE1060E00019A5DD8B016D0800E00017D
:100678009A25D96E000E00019B21DA6E880E0001C2
:100688009A25E16E000E00019B21E26EDFCFE7FFA5
:1006980000019A4B9B2BDFD758EC07F099EC03F03D
:1006A8001200000E00019D6F000E9C6F00019DBF9F
:1006B80008D000019D511BE1050E00019C5DD8B0DA
:1006C80016D0800E00019C25D96E000E00019D21D8
:1006D800DA6E230E00019C25E16E000E00019D21BB
:1006E800E26EDFCFE7FF00019C4B9D2BDFD766EC66
:1006F80004F01200DB0E4E6EFC0E4F6ECAEC06F0D4
:1007080012000D50010AD8B4FDD6030AD8B423D775
:10071800010AD8B449D7070AD8B46FD7150AD8B48C
:1007280095D7200AD8B4BDD7E5D70C04D8A416D0DD
:1007380021A007D0C20E4E6EFD0E4F6ECAEC06F019
:1007480027D02290000E2F6E0A0E2E6E0350041032
:10075800D8A402D021901CD021801AD0020E0C18E7
:10076800D8A416D021B007D06E0E4E6EFD0E4F6E77
:10077800CAEC06F00DD02190000E086E000E046E33
:10078800000E036E160E4E6EFE0E4F6ECAEC06F08D
:100798000B04D8A416D021A207D0D70E4E6EFD0E9A
:1007A8004F6ECAEC06F027D02292000E2D6E0A0E6C
:1007B8002C6E01500210D8A402D021921CD02182A4
:1007C8001AD0020E0B18D8A416D021B207D0830E67
:1007D8004E6EFD0E4F6ECAEC06F00DD02192000E43
:1007E800076E000E026E000E016E2A0E4E6EFE0E91
:1007F8004F6ECAEC06F00A04D8A416D021A407D07C
:10080800EC0E4E6EFD0E4F6ECAEC06F027D0229409
:10081800000E2B6E0A0E2A6E3A503B10D8A402D056
:1008280021941CD021841AD0020E0A18D8A416D0FC
:1008380021B407D0980E4E6EFD0E4F6ECAEC06F02E
:100848000DD02194000E066E000E3B6E000E3A6E1F
:100858003E0E4E6EFE0E4F6ECAEC06F00904D8A48A
:1008680016D021A607D0010E4E6EFE0E4F6ECAECB2
:1008780006F012002296000E296E0A0E286E3850D5
:100888003910D8A402D02196120021861200020E37
:100898000918D8A4120021B607D0AD0E4E6EFD0E71
:1008A8004F6ECAEC06F012002196000E056E000E7F
:1008B800396E000E386E520E4E6EFE0E4F6ECAEC3A
:1008C80006F0120021500F0B586E35D0000E0ED0D6
:1008D8005DC059F062D05CC059F05FD05D505C24B7
:1008E80005D05BC059F059D05D5006D0596E55D02F
:1008F8005C5002D05D505C245B24F8D75AC059F094
:100908004CD05D5009D05C5007D05D505C2404D0B9
:100918005B5002D05D5006D05A24E8D75C5002D014
:100928005D505C245B24F8D7FB0E4E6EFC0E4F6EB8
:10093800CAEC06F032D05850000AD8B4C7D7010A1A
:10094800D8B4C6D7030AD8B4C6D7010AD8B4C6D70C
:10095800070AD8B4C6D7010AD8B4C6D7030AD8B488
:10096800C7D7010AD8B4C6D70F0AD8B4C7D7010A5F
:10097800D8B4C7D7030AD8B4C6D7010AD8B4C5D7DC
:10098800070AD8B4C5D7010AD8B4C4D7030AD8B45B
:10099800C5D7010AD8B4C4D7C7D759C053F025C0A2
:1009A80054F00C0E45EC00F026C08CFF27C08EFFDB
:1009B800120013D08BBC02D08B8C17D08B9C15D017
:1009C8008BBE02D08B8E11D08B9E0FD0EF0E4E6E49
:1009D800FF0E4F6ECAEC06F008D05A50400AD8B441
:1009E800E9D7C00AD8B4ECD7F1D722A607D030C0CF
:1009F80028F031C029F02296219E120038C028F034
:100A080039C029F02286219E120013D08BB802D05B
:100A18008B8817D08B9815D08BBA02D08B8A11D0BF
:100A28008B9A0FD0E00E4E6EFF0E4F6ECAEC06F09A
:100A380008D05B50100AD8B4E9D7300AD8B4ECD73C
:100A4800F1D722A407D032C02AF033C02BF0229469
:100A5800219C12003AC02AF03BC02BF02284219C32
:100A6800120013D08BB402D08B8417D08B9415D07E
:100A78008BB602D08B8611D08B960FD0D10E4E6ECE
:100A8800FF0E4F6ECAEC06F008D05C50040AD8B4CA
:100A9800E9D70C0AD8B4ECD7F1D722A207D034C0D2
:100AA8002CF035C02DF02292219A120001C02CF0B2
:100AB80002C02DF02282219A120013D08BB002D0EE
:100AC8008B8017D08B9015D08BB202D08B8211D02F
:100AD8008B920FD0C20E4E6EFF0E4F6ECAEC06F010
:100AE80008D05D50010AD8B4E9D7030AD8B4ECD7C6
:100AF800F1D722A007D036C02EF037C02FF02290B1
:100B08002198120003C02EF004C02FF022802198F3
:100B18001200CE0EF66E0E0EF76E000EF86E00EE98
:100B28005AF010EE04F00900F5CFEEFFE550E15061
:100B3800FAE100EE60F0320EEE6AE806FDE100EE42
:100B480001F00D0EEE6AE806FDE15E6A00EE23F0A4
:100B58001C0EEE6AE806FDE15F905F92000EF86EEB
:100B68000001AEEF06F022A807D02298660E4E6E5E
:100B7800FE0E4F6ECAEC06F022AA07D0229A790E12
:100B88004E6EFE0E4F6ECAEC06F022AC07D0229CC9
:100B98008C0E4E6EFE0E4F6ECAEC06F022AE1200A0
:100BA800229E9F0E4E6EFE0E4F6ECAEC06F012008D
:100BB8009EA012009DA012009E90F90ECF6EE80E26
:100BC800CE6E3AEC07F028EC07F016EC07F004ECD0
:100BD80007F03C4A3D2AD10E3C180EE1070E3D189D
:100BE800D8A41200000E3D6E000E3C6E8EBE02D0E0
:100BF8008E8E12008E9E1200120021B61BD062C08B
:100C08005AF063C005F000016451FF0D0001655101
:100C1800F324386E0001000EF420396E000166518D
:100C2800FF0D00016751F324306E0001000EF4201F
:100C3800316E1200570E4E6EFD0E4F6ECAEC06F066
:100C4800120021B41BD06AC05BF06BC006F0000133
:100C58006C51FF0D00016D51F3243A6E0001000E36
:100C6800F4203B6E00016E51FF0D00016F51F3241B
:100C7800326E0001000EF420336E1200400E4E6EEC
:100C8800FD0E4F6ECAEC06F0120021B21BD072C0E6
:100C98005CF073C007F000017451FF0D000175513D
:100CA800F324016E0001000EF420026E000176515B
:100CB800FF0D00017751F324346E0001000EF4207B
:100CC800356E1200290E4E6EFD0E4F6ECAEC06F000
:100CD800120021B01BD07AC05DF07BC008F0000183
:100CE8007C51FF0D00017D51F324036E0001000EBD
:100CF800F420046E00017E51FF0D00017F51F324A2
:100D0800366E0001000EF420376E1200120E4E6E81
:100D1800FD0E4F6ECAEC06F012009DAA12009EAAA4
:100D280012003E50010D800EF324D96E000EF420FF
:100D3800DA6EAECFDFFF3E2AD00E00018019D8B49C
:100D480002D0000E3E6E070E3E641200000E3E6E8C
:100D58005E801200DFEC06F0F2EC06F04CEC07F0D7
:100D6800000E216E000E226E5EB082EC02F021B8F9
:100D780061EC05F021BA35EC05F021BC09EC05F071
:100D880021BEDDEC04F0B7EC05F0EED7500E506E46
:100D9800000E516E03D0525061EC07F04EC0F6FFC2
:100DA8004FC0F7FF4E4A4F2A0800F5CF52F0525075
:100DB800D8B41200F0D7000E826E000E8B6E000EB3
:100DC800946E000E836E000E8C6E000E956E000EF3
:100DD800856E000E8E6E000E976E12009868AB8EB0
:100DE800AC98AC9CAC8AAC84AC8AAB9CAB88A7961C
:100DF800440EAF6E000EF26EF28EF28C9D8A1200D7
:100E080021A612002806D8A0290628502910D8A4FF
:100E180012000550D8B403D00506218E1200219681
:100E2800228E120021A412002A06D8A02B062A50CE
:100E38002B10D8A412000650D8B403D00606218C73
:100E480012002194228C120021A212002C06D8A094
:100E58002D062C502D10D8A412000750D8B403D05A
:100E68000706218A12002192228A120021A012006C
:100E78002E06D8A02F062E502F10D8A412000850E6
:100E8800D8B403D0080621881200219022881200C5
:100E9800020ECD6EF90ECF6EE80ECE6E0F0158938E
:100EA800CD809D809E9012008AC00CF08BC00BF004
:100EB8008CC00AF08DC009F012004D6E9EA8FED7B6
:0A0EC8004DC0ADFF12000804020146
:10FCDA00005278204641494C2C436F6D6D616E6429
:10FCEA0020666F726D6174206572726F72210D0ADF
:10FCFA0000CDA8B5C031D5BCD3C3494FB7A2C9FA04
:10FD0A00B4EDCEF3210D0A004D43315F5041524DFF
:10FD1A00205772697465204661696C210D0A004D8D
:10FD2A0043325F5041524D205772697465204661D3
:10FD3A00696C210D0A004D43335F5041524D2057E3
:10FD4A0072697465204661696C210D0A004D43345D
:10FD5A005F5041524D205772697465204661696C43
:10FD6A00210D0A004D43315F73746F707065642C06
:10FD7A004552524F52210D0A004D43325F73746F40
:10FD8A00707065642C4552524F52210D0A004D4342
:10FD9A00335F73746F707065642C4552524F5221F1
:10FDAA000D0A004D43345F73746F707065642C459F
:10FDBA0052524F52210D0A004D43315F776F726BD9
:10FDCA00696E672C4552524F52210D0A004D43323B
:10FDDA005F776F726B696E672C4552524F52210DD5
:10FDEA000A004D43335F776F726B696E672C455219
:10FDFA00524F52210D0A004D43345F776F726B697F
:10FE0A006E672C4552524F52210D0A004D43315F05
:10FE1A0073746F702073756363657373210D0A00C1
:10FE2A004D43325F73746F702073756363657373C8
:10FE3A00210D0A004D43335F73746F70207375632D
:10FE4A0063657373210D0A004D43345F73746F70D9
:10FE5A002073756363657373210D0A004D43315F27
:10FE6A00456E642073756363657373210D0A004DD3
:10FE7A0043325F456E642073756363657373210D46
:10FE8A000A004D43335F456E64207375636365737F
:10FE9A0073210D0A004D43345F456E642073756308
:10FEAA0063657373210D0A00524430B1BB4D43316F
:10FEBA00D5BCD3C3D6D00D0A00524630B1BB4D4390
:10FECA0031D5BCD3C3D6D00D0A00524431B1BB4D93
:10FEDA004331D5BCD3C3D6D00D0A00524631B1BB8B
:10FEEA004D4331D5BCD3C3D6D00D0A00524432B1EA
:10FEFA00BB4D4332D5BCD3C3D6D00D0A00524632CD
:10FF0A00B1BB4D4332D5BCD3C3D6D00D0A0052443F
:10FF1A0033B1BB4D4332D5BCD3C3D6D00D0A005240
:10FF2A004633B1BB4D4332D5BCD3C3D6D00D0A003C
:10FF3A00524434B1BB4D4333D5BCD3C3D6D00D0ADA
:10FF4A0000524634B1BB4D4333D5BCD3C3D6D00DD2
:10FF5A000A00524435B1BB4D4333D5BCD3C3D6D0C6
:10FF6A000D0A00524635B1BB4D4333D5BCD3C3D677
:10FF7A00D00D0A00524436B1BB4D4334D5BCD3C36D
:10FF8A00D6D00D0A00524636B1BB4D4334D5BCD348
:10FF9A00C3D6D00D0A00524437B1BB4D4334D5BC49
:10FFAA00D3C3D6D00D0A00524637B1BB4D4334D520
:10FFBA00BCD3C3D6D00D0A00BDFBD3C34D4331CD4C
:10FFCA00A8B5C0210D0A00BDFBD3C34D4332CDA84D
:10FFDA00B5C0210D0A00BDFBD3C34D4333CDA8B52F
:10FFEA00C0210D0A00BDFBD3C34D4334CDA8B5C013
:05FFFA00210D0A0000CA
:020000040020DA
:08000000FFFFFFFFFFFFFFFF00
:020000040030CA
:0E0000001512797CFF0F90FF0FC00FE00F402C
:00000001FF
